S00C0000756172742E737265635C
S11300000C9434000C9451000C9451000C94510045
S11300100C9451000C9451000C9451000C94510018
S11300200C9451000C9451000C9451000C94510008
S11300300C9451000C9447010C9451000C94510001
S11300400C9451000C9451000C9472020C94A00274
S11300500C9451000C945C010C9451000C945100CC
S11300600C9451000C94510011241FBECFEFD8E022
S1130070DEBFCDBF11E0A0E0B1E0ECE7F6E002C0E6
S113008005900D92A636B107D9F721E0A6E6B1E0B6
S113009001C01D92AB3EB207E1F70E94F6000C943A
S11300A03C030C940000299A85E08A95F1F700003E
S11300B029980895CF93C82F662311F0289A01C078
S11300C02898549A559A569A579A5F985E985D98CC
S11300D05C98CC230CF45F9AC6FD5E9AC5FD5D9ACC
S11300E0C4FD5C9A0E9453005F985E985D985C988A
S11300F0C3FD5F9AC2FD5E9AC1FD5D9AC0FD5C9A24
S11301000E9453005C9A5D9A5E9A5F9A87EB9BE02B
S11301100197F1F700C00000CF91089560E00E94BC
S11301205A000895611104C080580E948E000895F9
S113013080540E948E00089581E00E948E000895EC
S113014061E00E945A000895CF93DF93EC01219659
S1130150FC018081882329F00E94A00089918111EB
S1130160FBCFDF91CF910895CF93C82F209A559A52
S1130170219A549A559A569A579A8FEF99EF019764
S1130180F1F700C000005D9A5C9A0E9453008FE171
S11301909EE40197F1F700C000000E9453008FEF26
S11301A090E00197F1F700C000000E9453008FEF28
S11301B090E00197F1F700C000005C980E945300A2
S11301C08FEF90E00197F1F700C0000088E20E94F1
S11301D08E0088E00E948E000E949C0086E00E94AF
S11301E08E008C2F0E948E00CF9108958CE00E9487
S11301F0B40060E081E00E94920087E091E00E94F8
S1130200A40061E083E00E9492008EE091E00E94ED
S1130210A40060E088E00E94920083E191E00E94E3
S1130220A40060E08DE00E94920085E191E00E94CC
S1130230A40061E088E00E94920087E191E00E94BE
S1130240A400ECE7F0E08081806480838081807F7B
S11302508083EAE7F0E08081806880838081886021
S11302608083808187608083E1E8F0E080818B7FF8
S11302708083808183608083EFE6F0E08081816009
S1130280808389E090E00E94CA027894FFCF1F9295
S11302900F920FB60F9211248F93EF93FF93EAE717
S11302A0F0E0808180648083FF91EF918F910F90C3
S11302B00FBE0F901F9018951F920F920FB60F92BA
S11302C01124EF92FF920F931F932F933F934F9319
S11302D05F936F937F938F939F93AF93BF93EF93AA
S11302E0FF93CF93DF93CDB7DEB72A97DEBFCDBFA1
S11302F080E390E39A8389839C838B8386E0E0E0A8
S1130300F1E0DE01159601900D928A95E1F70091D6
S1130310780010917900E02EF12E4AE0BE016F5F63
S11303207F4FC8010E94070360E088E00E949200AA
S113033089E191E00E94A40060E088E00E949200BC
S1130340CE0101960E94A4000D3B82E0180748F0FC
S113035085E0EEE1F1E0DE01159601900D928A95BB
S1130360E1F7C801855C9140873F910548F487E037
S1130370E3E2F1E0DE01159601900D928A95E1F732
S1130380C801885291408C39910548F485E0EAE22D
S1130390F1E0DE01159601900D928A95E1F7C8010E
S11303A0885991098F38910548F485E0EFE2F1E02E
S11303B0DE01159601900D928A95E1F7C801C39765
S11303C08436910528F485E790E79E838D831F8208
S11303D00233110548F486E0EFE5F1E0DE011596FD
S11303E001900D928A95E1F761E088E00E94920005
S11303F080E091E00E94A40061E088E00E94920005
S1130400CE0105960E94A4000C3B82E01807C0F4BC
S113041084E391E00E94F802CE0101960E94F80262
S11304208BE491E00E94F8028EE491E00E94F802CD
S1130430CE0105960E94F8028BE491E00E94F80236
S113044040E1BE016F5F7F4F8E2D9F2D0E940703F9
S113045060E08DE00E9492008AE191E00E94A40095
S113046060E08DE00E949200CE0101960E94A400FB
S11304700115110549F080E000FD8F5F1695079581
S113048001151105C9F701C080E04AE0BE016F5FA4
S11304907F4F817090E00E94070361E08FE00E942B
S11304A09200CE0101960E94A4002A960FB6F894F9
S11304B0DEBF0FBECDBFDF91CF91FF91EF91BF9112
S11304C0AF919F918F917F916F915F914F913F91E8
S11304D02F911F910F91FF90EF900F900FBE0F90EF
S11304E01F9018951F920F920FB60F9211242F93FD
S11304F08F939F93EF93FF938091C0002091C60048
S11305008C71E0916801EF5FEF7390916701E917D7
S113051039F0E0936801F0E0E559FE4F208301C013
S113052082E090916601892B80936601FF91EF919F
S11305309F918F912F910F900FBE0F901F90189540
S11305401F920F920FB60F9211248F939F93EF93E4
S1130550FF9390916A0180916901981769F0E09185
S11305606901EF5FEF73E0936901F0E0E555FE4F39
S113057080818093C60005C0E1ECF0E080818F7D2E
S11305808083FF91EF919F918F910F900FBE0F90F9
S11305901F90189510926A011092690110926801D7
S11305A01092670199231CF422E02093C0009078F4
S11305B09093C5008093C40088E98093C10086E0CD
S11305C08093C200089520916A012F5F2F73909148
S11305D069012917E1F3E22FF0E0E555FE4F80832E
S11305E020936A01E1ECF0E08081806280830895C9
S11305F0CF93DF93EC018881882331F021960E9408
S1130600E30289918111FBCFDF91CF910895BB273C
S11306104A3031F4992322F4BDE2909581959F4F9D
S11306200C941303BB27FB015527AA27880F991F96
S1130630AA1FA41710F0A41B83955051B9F7A05D0D
S1130640AA3308F0A95DA193009779F7B111B1938A
S11306501192CB010C942C03DC01FC01672F7191E6
S11306607723E1F7329704C07C916D937083629194
S10F0670AE17BF07C8F30895F894FFCF3D
S113067C2020202020200076616C75653A006B6583
S113068C793A0061006200630020202020006E6F24
S113069C6E650073656C656374006C6566740064E8
S11306AC6F776E004144432076616C756520696EEA
S11306BC20646563696D616C3A20000D0A00507208
S11306CC657373656420427574746F6E3A2000729E
S10906DC69676874000068
S9030000FC
