S0190000736E616B655F6170706C69636174696F6E2E7372656306
S11300000C9434000C9449000C9449000C9449005D
S11300100C9449000C9449000C9449000C94490038
S11300200C9449000C9449000C9449000C94490028
S11300300C9449000C9449000C9449000C94490018
S11300400C9449000C9449000C9449000C94490008
S11300500C9449000C9449000C9449000C944900F8
S11300600C9449000C94490011241FBECFEFD8E032
S1130070DEBFCDBF11E0A0E0B1E0E8EDF2E002C0E8
S113008005900D92AE30B107D9F70E9470000C9420
S11300906A010C940000FC01408121E030E002C0C0
S11300A0220F331F6A95E2F7242B20830895FC0165
S11300B0908121E030E002C0220F331F6A95E2F7FD
S11300C02095292320830895FC01408121E030E01C
S11300D002C0220F331F6A95E2F7242B2083089570
S11300E00E94E30040E060E18FEE0E94F3002FEFF6
S11300F084E39CE0215080409040E1F700C0000080
S113010040E060E18FED0E94F3002FEF84E39CE078
S1130110215080409040E1F700C0000040E060E1E1
S11301208FEB0E94F3002FEF84E39CE0215080408A
S11301309040E1F700C0000040E060E18FE70E94DA
S1130140F3002FEF84E39CE0215080409040E1F7DE
S113015000C0000040E060E28FE70E94F3002FEF50
S113016084E39CE0215080409040E1F700C000000F
S113017040E060E28BEF0E94F3002FEF84E39CE009
S1130180215080409040E1F700C0000040E060E270
S113019087EF0E94F3002FEF84E39CE0215080401E
S11301A09040E1F700C0000040E060E28FEE0E9462
S11301B0F3002FEF84E39CE0215080409040E1F76E
S11301C000C000008FCF64E08AE290E00E944B0000
S11301D067E08AE290E00E944B0060E084E290E0F5
S11301E00E944B0008951F93CF93DF93D82FC62FFF
S11301F0413051F4E82FF0E0EC5FFE4FD081E62F60
S1130200F0E0E050FF4FC08164E08BE290E00E9498
S1130210570067E08BE290E00E94570060E085E2BF
S113022090E00E94570085E08A95F1F7000018E0FD
S1130230D0FD06C060E085E290E00E94570005C052
S113024060E085E290E00E94640085E08A95F1F721
S1130250000067E08BE290E00E94640085E08A95EC
S1130260F1F7000067E08BE290E00E945700D6951A
S11302701150F1F6D8E0C0FD06C060E085E290E0E0
S11302800E94570005C060E085E290E00E9464008F
S113029085E08A95F1F7000067E08BE290E00E9428
S11302A0640085E08A95F1F7000067E08BE290E056
S11302B00E945700C695D150F1F664E08BE290E0BD
S11302C00E94640085E08A95F1F70000DF91CF91E8
S10B02D01F910895F894FFCF7B
S11102D810204080039F250D9949411F010904
S9030000FC
