S00B00006C63642E73726563E6
S11300000C9434000C9451000C9451000C94510045
S11300100C9451000C9451000C9451000C94510018
S11300200C9451000C9459010C9451000C945100FF
S11300300C9451000C9451000C9451000C945100F8
S11300400C9412020C9451000C9451000C94510025
S11300500C9451000C9451000C9451000C945100D8
S11300600C9451000C94510011241FBECFEFD8E022
S1130070DEBFCDBF11E0A0E0B1E0ECE2F5E002C0EC
S113008005900D92A834B107D9F721E0A8E4B1E0B6
S113009001C01D92AE34B207E1F70E94FA000C943D
S11300A094020C940000299A85E08A95F1F70000E7
S11300B029980895CF93C82F662311F0289A01C078
S11300C02898549A559A569A579A5F985E985D98CC
S11300D05C98CC230CF45F9AC6FD5E9AC5FD5D9ACC
S11300E0C4FD5C9A0E9453005F985E985D985C988A
S11300F0C3FD5F9AC2FD5E9AC1FD5D9AC0FD5C9A24
S11301000E9453005C9A5D9A5E9A5F9A87EB9BE02B
S11301100197F1F700C00000CF91089560E00E94BC
S11301205A00089561E00E945A000895611104C0C4
S113013080580E948E00089580540E948E00089575
S113014081E00E948E00089561E00E945A000895A3
S1130150CF93DF93EC012196FC018081882329F061
S11301600E94A40089918111FBCFDF91CF91089562
S1130170CF93C82F209A559A219A549A559A569AF1
S1130180579A8FEF99EF0197F1F700C000005D9A3D
S11301905C9A0E9453008FE19EE40197F1F700C03E
S11301A000000E9453008FEF90E00197F1F700C028
S11301B000000E9453008FEF90E00197F1F700C018
S11301C000005C980E9453008FEF90E00197F1F7D4
S11301D000C0000088E20E948E0088E00E948E0029
S11301E00E94A00086E00E948E008C2F0E948E0048
S11301F0CF9108958CE00E94B80080E40E948E00A4
S1130200C0E0D1E000E411E089910E949200C0179F
S1130210D107D1F780E80E948E0060E080E00E9460
S1130220960086E00E94A40060E088E00E949600A8
S113023087E00E94A40060E081E00E94960080E4D0
S113024091E00E94A8008AE30E94A40080E491E067
S11302500E94A8008EE20E94A40081E491E00E9422
S1130260A80060E08BE00E94960080E30E94A40056
S113027061E08BE00E94960083E60E94A400E1EB1B
S1130280F0E080818C7F8083808184608083E0E7DC
S1130290F0E080818160808385B58D7F85BD85B5E3
S11302A0856085BDEEE6F0E080818160808378948E
S11302B0FFCF1F920F920FB60F9211242F933F93EB
S11302C04F935F936F937F938F939F93AF93BF935A
S11302D0EF93FF93CF93DF93CDB7DEB72697DEBFBF
S11302E0CDBF80E290E29A83898380914D018F5F34
S11302F0863018F480934D017CC010924D0180919A
S11303004C018F5F8A3018F480934C0161C01092C5
S11303104C0180914B018F5F8C3318F480934B0117
S113032024C010924B0180914A018F5F8C3318F4E2
S113033080934A0102C010924A0160E081E00E9469
S1130340960080914A018A3018F480E30E94A40048
S113035080914A014AE0BE016F5F7F4F90E00E94A6
S11303605F02CE0101960E94A80060E084E00E9432
S1130370960080914B018A3018F480E30E94A40017
S113038080914B014AE0BE016F5F7F4F90E00E9475
S11303905F02CE0101960E94A80060E08BE00E94FB
S11303A0960080914B014AE0BE016D5F7F4F889FAC
S11303B0C00111240E945F02CE0103960E94A8008E
S11303C080914B01811104C083E491E00E94A80054
S11303D060E087E00E94960080914C014AE0BE01F3
S11303E06F5F7F4F90E00E945F02CE0101960E94F2
S11303F0A80026960FB6F894DEBF0FBECDBFDF91DE
S1130400CF91FF91EF91BF91AF919F918F917F9188
S11304106F915F914F913F912F910F900FBE0F906D
S11304201F9018951F920F920FB60F9211242F93BD
S11304303F934F935F936F937F938F939F93AF9368
S1130440BF93CF93EF93FF938091490161E08F5F56
S11304500E949600809148010E94A4008091480166
S11304608F5F863018F48093480117C010924801BA
S1130470809149018F5F8A3018F4809349010DC03F
S11304801092490161E081E00E949600C0E080E0A2
S11304900E94A400CF5FCA30D1F7FF91EF91CF91B2
S11304A0BF91AF919F918F917F916F915F914F9188
S11304B03F912F910F900FBE0F901F901895BB275F
S11304C04A3031F4992322F4BDE2909581959F4FEF
S11304D00C946B02BB27FB015527AA27880F991F91
S11304E0AA1FA41710F0A41B83955051B9F7A05D5F
S11304F0AA3308F0A95DA193009779F7B111B193DC
S11305001192CB010C948402DC01FC01672F7191E0
S11305107723E1F7329704C07C916D9370836291E5
S10F0520AE17BF07C8F30895F894FFCF8E
S113052C000000000000000010101010101010103B
S113053C18181818181818181C1C1C1C1C1C1C1C0B
S113054C1E1E1E1E1E1E1E1E1F1F1F1F1F1F1F1FB3
S113055C0004021F020400000004081F0804000029
S10B056C3030002020200000C3
S9030000FC
