S01500004445325F4D6F727365436F64652E7372656374
S11300000C9434000C943E000C943E000C943E007E
S11300100C943E000C943E000C943E000C943E0064
S11300200C943E000C943E000C943E000C943E0054
S11300300C943E000C943E000C943E000C943E0044
S11300400C943E000C943E000C943E000C943E0034
S11300500C943E000C943E000C943E000C943E0024
S11300600C943E000C943E0011241FBECFEFD8E048
S1130070DEBFCDBF0E9474000C94A4000C94000059
S11300802FEF39E688E1215030408040E1F700C08D
S1130090000095B180E2982795B99FEF29E638E1F1
S11300A0915020403040E1F700C0000095B189270D
S11300B085B908952FEF39E688E12150304080401A
S11300C0E1F700C0000095B180E2982795B99FEF51
S11300D023ED30E3915020403040E1F700C00000B0
S11300E095B1892785B90895259A2D982FEF83ED29
S11300F090E3215080409040E1F700C000000E944E
S11301005A000E9440000E9440002FEF89E698E1C7
S1130110215080409040E1F700C000000E94400060
S11301202FEF89E698E1215080409040E1F700C02C
S113013000000E9440000E9440000E945A000E9459
S10F01405A000E945A00D2CFF894FFCF5E
S9030000FC
