S01400006770696F5F6C6962726172792E737265630D
S11300000C9434000C943E000C943E000C943E007E
S11300100C943E000C943E000C943E000C943E0064
S11300200C943E000C943E000C943E000C943E0054
S11300300C943E000C943E000C943E000C943E0044
S11300400C943E000C943E000C943E000C943E0034
S11300500C943E000C943E000C943E000C943E0024
S11300600C943E000C943E0011241FBECFEFD8E048
S1130070DEBFCDBF0E9480000C94B4000C9400003D
S1130080FC01408121E030E002C0220F331F6A9559
S1130090E2F7242B20830895FC01808121E030E0E5
S11300A002C0220F331F6A95E2F7922F909589239D
S11300B0808380818181282B21830895FC01908194
S11300C021E030E002C0220F331F6A95E2F7209549
S11300D0292320830895FC01408121E030E002C0FF
S11300E0220F331F6A95E2F7242720830895FC0129
S11300F0808190E002C0959587956A95E2F708950E
S113010065E084E290E00E94400065E085E290E0D2
S11301100E945E0060E087E290E00E94400060E0A0
S113012088E290E00E945E0060E08AE290E00E9433
S11301304C002FEF89E698E1215080409040E1F790
S113014000C0000060E089E290E00E947700811125
S1130150F0CF65E085E290E00E946B0060E088E209
S10F016090E00E946B00E5CFF894FFCF04
S9030000FC
