S00E000074696D6572732E7372656382
S11300000C9434000C9451000C9451000C94510045
S11300100C9451000C9451000C9451000C94510018
S11300200C9451000C9451000C9451000C94510008
S11300300C9451000C94F1000C9451000C94510058
S11300400C9451000C9451000C9451000C945100E8
S11300500C9451000C9451000C9451000C945100D8
S11300600C9451000C94510011241FBECFEFD8E022
S1130070DEBFCDBF11E0A0E0B1E0EAEAF2E002C0E9
S113008005900D92A430B107D9F721E0A4E0B1E0C6
S113009001C01D92A830B207E1F70E94A0000C94A1
S11300A053010C940000FC01408121E030E002C0C7
S11300B0220F331F6A95E2F7242B20830895FC0155
S11300C0808121E030E002C0220F331F6A95E2F7FD
S11300D0922F90958923808380818181282B21838D
S11300E00895FC01908121E030E002C0220F331F0B
S11300F06A95E2F72095292320830895FC01408125
S113010021E030E002C0220F331F6A95E2F7242B6E
S113011020830895FC01408121E030E002C0220FD9
S1130120331F6A95E2F7242720830895FC01808118
S113013090E002C0959587956A95E2F781700895DD
S1130140C0E0D1E0688184E290E00E9453006881BD
S113015085E290E00E947100698184E290E00E944F
S11301605300698185E290E00E947E006A8184E206
S113017090E00E9453006A8185E290E00E947E0034
S11301806B8184E290E00E9453006B8185E290E0F1
S11301900E947E0060E08AE290E00E945F00789412
S11301A0C1E8D0E00FE610E060E089E290E00E9450
S11301B09600882359F088818C7F888388818460A5
S11301C08883F801808181608083EECF88818B7F72
S11301D08883888183608883F8018081816080833B
S11301E0E3CF1F920F920FB60F9211242F933F93D8
S11301F04F935F936F937F938F939F93AF93BF932B
S1130200EF93FF93E0910601F0910701E050FF4F57
S1130210608185E290E00E948A00809106019091BD
S113022007018330910539F421E030E03093050172
S11302302093040117C0009729F41092050110922D
S1130240040107C0209104013091050121153105F5
S113025031F40196909307018093060108C0213080
S1130260310529F401979093070180930601E091E9
S11302700601F0910701E050FF4F608185E290E0B4
S11302800E948A00FF91EF91BF91AF919F918F914E
S11302907F916F915F914F913F912F910F900FBE7E
S10D02A00F901F901895F894FFCFFB
S10702AA050403023E
S9030000FC
