S01400006B6E696768745F72696465722E7372656316
S11300000C9434000C943E000C943E000C943E007E
S11300100C943E000C943E000C943E000C943E0064
S11300200C943E000C943E000C943E000C943E0054
S11300300C943E000C943E000C943E000C943E0044
S11300400C943E000C943E000C943E000C943E0034
S11300500C943E000C943E000C943E000C943E0024
S11300600C943E000C943E0011241FBECFEFD8E048
S1130070DEBFCDBF0E944F000C9472000C940000B0
S11300802FEF89E698E1215080409040E1F700C0CD
S1130090000029982A982B982C982D980895219A35
S11300A0229A239A249A259A5098589A0E9440009A
S11300B04899FECF299A4899FECF0E9440002A9A77
S11300C04899FECF0E9440002B9A4899FECF0E9487
S11300D040002C9A4899FECF0E9440002D9A4899DE
S10B00E0FECFE4CFF894FFCF3A
S9030000FC
